{
  "_format": "hh-sol-artifact-1",
  "contractName": "RisitasSale",
  "sourceName": "contracts/RisitasSale.sol",
  "abi": [
    {
      "inputs": [
        {
          "internalType": "contract RIZToken",
          "name": "_token",
          "type": "address"
        }
      ],
      "stateMutability": "payable",
      "type": "constructor"
    },
    {
      "inputs": [],
      "name": "NoEtherError",
      "type": "error"
    },
    {
      "inputs": [],
      "name": "NoTokenError",
      "type": "error"
    },
    {
      "inputs": [
        {
          "internalType": "address",
          "name": "owner",
          "type": "address"
        }
      ],
      "name": "OwnableInvalidOwner",
      "type": "error"
    },
    {
      "inputs": [
        {
          "internalType": "address",
          "name": "account",
          "type": "address"
        }
      ],
      "name": "OwnableUnauthorizedAccount",
      "type": "error"
    },
    {
      "inputs": [],
      "name": "OwnerOnlyAction",
      "type": "error"
    },
    {
      "inputs": [],
      "name": "SaleNotActive",
      "type": "error"
    },
    {
      "inputs": [],
      "name": "SaleNotClose",
      "type": "error"
    },
    {
      "anonymous": false,
      "inputs": [
        {
          "indexed": true,
          "internalType": "address",
          "name": "previousOwner",
          "type": "address"
        },
        {
          "indexed": true,
          "internalType": "address",
          "name": "newOwner",
          "type": "address"
        }
      ],
      "name": "OwnershipTransferred",
      "type": "event"
    },
    {
      "anonymous": false,
      "inputs": [],
      "name": "SaleUpdated",
      "type": "event"
    },
    {
      "anonymous": false,
      "inputs": [
        {
          "indexed": true,
          "internalType": "address",
          "name": "purchaser",
          "type": "address"
        },
        {
          "indexed": true,
          "internalType": "address",
          "name": "beneficiary",
          "type": "address"
        },
        {
          "indexed": false,
          "internalType": "uint256",
          "name": "value",
          "type": "uint256"
        },
        {
          "indexed": false,
          "internalType": "uint256",
          "name": "amount",
          "type": "uint256"
        }
      ],
      "name": "TokenPurchase",
      "type": "event"
    },
    {
      "inputs": [],
      "name": "actualState",
      "outputs": [
        {
          "internalType": "enum RisitasSale.State",
          "name": "",
          "type": "uint8"
        }
      ],
      "stateMutability": "view",
      "type": "function"
    },
    {
      "inputs": [],
      "name": "buyTokens",
      "outputs": [],
      "stateMutability": "payable",
      "type": "function"
    },
    {
      "inputs": [],
      "name": "closeSale",
      "outputs": [],
      "stateMutability": "nonpayable",
      "type": "function"
    },
    {
      "inputs": [],
      "name": "etherRaised",
      "outputs": [
        {
          "internalType": "uint256",
          "name": "",
          "type": "uint256"
        }
      ],
      "stateMutability": "view",
      "type": "function"
    },
    {
      "inputs": [],
      "name": "getIsSaleClosed",
      "outputs": [
        {
          "internalType": "bool",
          "name": "",
          "type": "bool"
        }
      ],
      "stateMutability": "view",
      "type": "function"
    },
    {
      "inputs": [],
      "name": "icoMoneyState",
      "outputs": [],
      "stateMutability": "nonpayable",
      "type": "function"
    },
    {
      "inputs": [],
      "name": "loveMoneyState",
      "outputs": [],
      "stateMutability": "nonpayable",
      "type": "function"
    },
    {
      "inputs": [],
      "name": "owner",
      "outputs": [
        {
          "internalType": "address",
          "name": "",
          "type": "address"
        }
      ],
      "stateMutability": "view",
      "type": "function"
    },
    {
      "inputs": [],
      "name": "preSaleMoneyState",
      "outputs": [],
      "stateMutability": "nonpayable",
      "type": "function"
    },
    {
      "inputs": [],
      "name": "rate",
      "outputs": [
        {
          "internalType": "uint256",
          "name": "",
          "type": "uint256"
        }
      ],
      "stateMutability": "view",
      "type": "function"
    },
    {
      "inputs": [],
      "name": "renounceOwnership",
      "outputs": [],
      "stateMutability": "nonpayable",
      "type": "function"
    },
    {
      "inputs": [],
      "name": "resumeSale",
      "outputs": [],
      "stateMutability": "nonpayable",
      "type": "function"
    },
    {
      "inputs": [],
      "name": "token",
      "outputs": [
        {
          "internalType": "contract RIZToken",
          "name": "",
          "type": "address"
        }
      ],
      "stateMutability": "view",
      "type": "function"
    },
    {
      "inputs": [
        {
          "internalType": "address",
          "name": "newOwner",
          "type": "address"
        }
      ],
      "name": "transferOwnership",
      "outputs": [],
      "stateMutability": "nonpayable",
      "type": "function"
    },
    {
      "inputs": [],
      "name": "wallet",
      "outputs": [
        {
          "internalType": "address payable",
          "name": "",
          "type": "address"
        }
      ],
      "stateMutability": "view",
      "type": "function"
    },
    {
      "inputs": [],
      "name": "withdraw",
      "outputs": [],
      "stateMutability": "nonpayable",
      "type": "function"
    },
    {
      "inputs": [],
      "name": "withdrawLastTokens",
      "outputs": [],
      "stateMutability": "nonpayable",
      "type": "function"
    }
  ],
  "bytecode": "0x60806040526001600260146101000a81548160ff021916908360028111156200002d576200002c62000314565b5b02179055506000600560006101000a81548160ff02191690831515021790555060405162001614380380620016148339818101604052810190620000729190620003c1565b33600073ffffffffffffffffffffffffffffffffffffffff168173ffffffffffffffffffffffffffffffffffffffff1603620000e85760006040517f1e4fbdf7000000000000000000000000000000000000000000000000000000008152600401620000df919062000404565b60405180910390fd5b620000f9816200019560201b60201c565b5033600260006101000a81548173ffffffffffffffffffffffffffffffffffffffff021916908373ffffffffffffffffffffffffffffffffffffffff16021790555080600160006101000a81548173ffffffffffffffffffffffffffffffffffffffff021916908373ffffffffffffffffffffffffffffffffffffffff1602179055506200018e60016200025960201b60201c565b5062000421565b60008060009054906101000a900473ffffffffffffffffffffffffffffffffffffffff169050816000806101000a81548173ffffffffffffffffffffffffffffffffffffffff021916908373ffffffffffffffffffffffffffffffffffffffff1602179055508173ffffffffffffffffffffffffffffffffffffffff168173ffffffffffffffffffffffffffffffffffffffff167f8be0079c531659141344cd1fd0a4f28419497f9722a3daafe3b4186f6b6457e060405160405180910390a35050565b6001600281111562000270576200026f62000314565b5b81600281111562000286576200028562000314565b5b036200029a576032600381905550620002e4565b600280811115620002b057620002af62000314565b5b816002811115620002c657620002c562000314565b5b03620002da576017600381905550620002e3565b600a6003819055505b5b80600260146101000a81548160ff021916908360028111156200030c576200030b62000314565b5b021790555050565b7f4e487b7100000000000000000000000000000000000000000000000000000000600052602160045260246000fd5b600080fd5b600073ffffffffffffffffffffffffffffffffffffffff82169050919050565b6000620003758262000348565b9050919050565b6000620003898262000368565b9050919050565b6200039b816200037c565b8114620003a757600080fd5b50565b600081519050620003bb8162000390565b92915050565b600060208284031215620003da57620003d962000343565b5b6000620003ea84828501620003aa565b91505092915050565b620003fe8162000368565b82525050565b60006020820190506200041b6000830184620003f3565b92915050565b6111e380620004316000396000f3fe6080604052600436106100fe5760003560e01c80638da5cb5b11610095578063ee55efee11610064578063ee55efee1461026e578063f2fde38b14610285578063f3e00dbd146102ae578063f7dfe660146102d9578063fc0c546a146102f0576100fe565b80638da5cb5b146101f7578063a62827e414610222578063cd72ab6914610239578063d0febe4c14610264576100fe565b80633ccfd60b116100d15780633ccfd60b14610187578063521eb2731461019e5780635cf9c4e1146101c9578063715018a6146101e0576100fe565b80631e6cf79b146101035780632c4e722e1461011a57806333e364cb14610145578063387815341461015c575b600080fd5b34801561010f57600080fd5b5061011861031b565b005b34801561012657600080fd5b5061012f61032f565b60405161013c9190610d67565b60405180910390f35b34801561015157600080fd5b5061015a610335565b005b34801561016857600080fd5b50610171610386565b60405161017e9190610d9d565b60405180910390f35b34801561019357600080fd5b5061019c61039d565b005b3480156101aa57600080fd5b506101b3610497565b6040516101c09190610df9565b60405180910390f35b3480156101d557600080fd5b506101de6104bd565b005b3480156101ec57600080fd5b506101f56104d1565b005b34801561020357600080fd5b5061020c6104e5565b6040516102199190610e35565b60405180910390f35b34801561022e57600080fd5b5061023761050e565b005b34801561024557600080fd5b5061024e610791565b60405161025b9190610d67565b60405180910390f35b61026c610797565b005b34801561027a57600080fd5b50610283610a2f565b005b34801561029157600080fd5b506102ac60048036038101906102a79190610e81565b610a80565b005b3480156102ba57600080fd5b506102c3610b06565b6040516102d09190610f25565b60405180910390f35b3480156102e557600080fd5b506102ee610b19565b005b3480156102fc57600080fd5b50610305610b2d565b6040516103129190610f9f565b60405180910390f35b610323610b53565b61032d6000610bda565b565b60035481565b61033d610b53565b7f7bfe6742165ff17e28c2fe0dd9296688d86c9cfcba3125c29b2d662adba385cd60405160405180910390a16000600560006101000a81548160ff021916908315150217905550565b6000600560009054906101000a900460ff16905090565b6103a5610b53565b60001515600560009054906101000a900460ff161515036103f2576040517fb7b2409700000000000000000000000000000000000000000000000000000000815260040160405180910390fd5b6000470361042c576040517fa3ab357500000000000000000000000000000000000000000000000000000000815260040160405180910390fd5b600260009054906101000a900473ffffffffffffffffffffffffffffffffffffffff1673ffffffffffffffffffffffffffffffffffffffff166108fc479081150290604051600060405180830381858888f19350505050158015610494573d6000803e3d6000fd5b50565b600260009054906101000a900473ffffffffffffffffffffffffffffffffffffffff1681565b6104c5610b53565b6104cf6002610bda565b565b6104d9610b53565b6104e36000610c82565b565b60008060009054906101000a900473ffffffffffffffffffffffffffffffffffffffff16905090565b610516610b53565b600560009054906101000a900460ff1661055c576040517fb7b2409700000000000000000000000000000000000000000000000000000000815260040160405180910390fd5b6000600160009054906101000a900473ffffffffffffffffffffffffffffffffffffffff1673ffffffffffffffffffffffffffffffffffffffff166370a08231306040518263ffffffff1660e01b81526004016105b99190610e35565b602060405180830381865afa1580156105d6573d6000803e3d6000fd5b505050506040513d601f19601f820116820180604052508101906105fa9190610fe6565b03610631576040517f20afb51e00000000000000000000000000000000000000000000000000000000815260040160405180910390fd5b600160009054906101000a900473ffffffffffffffffffffffffffffffffffffffff1673ffffffffffffffffffffffffffffffffffffffff1663a9059cbb600260009054906101000a900473ffffffffffffffffffffffffffffffffffffffff16600160009054906101000a900473ffffffffffffffffffffffffffffffffffffffff1673ffffffffffffffffffffffffffffffffffffffff166370a08231306040518263ffffffff1660e01b81526004016106ed9190610e35565b602060405180830381865afa15801561070a573d6000803e3d6000fd5b505050506040513d601f19601f8201168201806040525081019061072e9190610fe6565b6040518363ffffffff1660e01b815260040161074b929190611034565b6020604051808303816000875af115801561076a573d6000803e3d6000fd5b505050506040513d601f19601f8201168201806040525081019061078e9190611089565b50565b60045481565b600034036107d1576040517fa3ab357500000000000000000000000000000000000000000000000000000000815260040160405180910390fd5b600560009054906101000a900460ff1615610818576040517fb7b2409700000000000000000000000000000000000000000000000000000000815260040160405180910390fd5b6000600160009054906101000a900473ffffffffffffffffffffffffffffffffffffffff1673ffffffffffffffffffffffffffffffffffffffff166370a08231306040518263ffffffff1660e01b81526004016108759190610e35565b602060405180830381865afa158015610892573d6000803e3d6000fd5b505050506040513d601f19601f820116820180604052508101906108b69190610fe6565b036108ed576040517f20afb51e00000000000000000000000000000000000000000000000000000000815260040160405180910390fd5b6000339050600034905060006003548261090791906110e5565b9050816004600082825461091b9190611127565b92505081905550600160009054906101000a900473ffffffffffffffffffffffffffffffffffffffff1673ffffffffffffffffffffffffffffffffffffffff1663a9059cbb84836040518363ffffffff1660e01b815260040161097f92919061115b565b6020604051808303816000875af115801561099e573d6000803e3d6000fd5b505050506040513d601f19601f820116820180604052508101906109c29190611089565b508273ffffffffffffffffffffffffffffffffffffffff163373ffffffffffffffffffffffffffffffffffffffff167f623b3804fa71d67900d064613da8f94b9617215ee90799290593e1745087ad188484604051610a22929190611184565b60405180910390a3505050565b610a37610b53565b7f7bfe6742165ff17e28c2fe0dd9296688d86c9cfcba3125c29b2d662adba385cd60405160405180910390a16001600560006101000a81548160ff021916908315150217905550565b610a88610b53565b600073ffffffffffffffffffffffffffffffffffffffff168173ffffffffffffffffffffffffffffffffffffffff1603610afa5760006040517f1e4fbdf7000000000000000000000000000000000000000000000000000000008152600401610af19190610e35565b60405180910390fd5b610b0381610c82565b50565b600260149054906101000a900460ff1681565b610b21610b53565b610b2b6001610bda565b565b600160009054906101000a900473ffffffffffffffffffffffffffffffffffffffff1681565b610b5b610d46565b73ffffffffffffffffffffffffffffffffffffffff16610b796104e5565b73ffffffffffffffffffffffffffffffffffffffff1614610bd857610b9c610d46565b6040517f118cdaa7000000000000000000000000000000000000000000000000000000008152600401610bcf9190610e35565b60405180910390fd5b565b60016002811115610bee57610bed610eae565b5b816002811115610c0157610c00610eae565b5b03610c13576032600381905550610c55565b600280811115610c2657610c25610eae565b5b816002811115610c3957610c38610eae565b5b03610c4b576017600381905550610c54565b600a6003819055505b5b80600260146101000a81548160ff02191690836002811115610c7a57610c79610eae565b5b021790555050565b60008060009054906101000a900473ffffffffffffffffffffffffffffffffffffffff169050816000806101000a81548173ffffffffffffffffffffffffffffffffffffffff021916908373ffffffffffffffffffffffffffffffffffffffff1602179055508173ffffffffffffffffffffffffffffffffffffffff168173ffffffffffffffffffffffffffffffffffffffff167f8be0079c531659141344cd1fd0a4f28419497f9722a3daafe3b4186f6b6457e060405160405180910390a35050565b600033905090565b6000819050919050565b610d6181610d4e565b82525050565b6000602082019050610d7c6000830184610d58565b92915050565b60008115159050919050565b610d9781610d82565b82525050565b6000602082019050610db26000830184610d8e565b92915050565b600073ffffffffffffffffffffffffffffffffffffffff82169050919050565b6000610de382610db8565b9050919050565b610df381610dd8565b82525050565b6000602082019050610e0e6000830184610dea565b92915050565b6000610e1f82610db8565b9050919050565b610e2f81610e14565b82525050565b6000602082019050610e4a6000830184610e26565b92915050565b600080fd5b610e5e81610e14565b8114610e6957600080fd5b50565b600081359050610e7b81610e55565b92915050565b600060208284031215610e9757610e96610e50565b5b6000610ea584828501610e6c565b91505092915050565b7f4e487b7100000000000000000000000000000000000000000000000000000000600052602160045260246000fd5b60038110610eee57610eed610eae565b5b50565b6000819050610eff82610edd565b919050565b6000610f0f82610ef1565b9050919050565b610f1f81610f04565b82525050565b6000602082019050610f3a6000830184610f16565b92915050565b6000819050919050565b6000610f65610f60610f5b84610db8565b610f40565b610db8565b9050919050565b6000610f7782610f4a565b9050919050565b6000610f8982610f6c565b9050919050565b610f9981610f7e565b82525050565b6000602082019050610fb46000830184610f90565b92915050565b610fc381610d4e565b8114610fce57600080fd5b50565b600081519050610fe081610fba565b92915050565b600060208284031215610ffc57610ffb610e50565b5b600061100a84828501610fd1565b91505092915050565b600061101e82610f6c565b9050919050565b61102e81611013565b82525050565b60006040820190506110496000830185611025565b6110566020830184610d58565b9392505050565b61106681610d82565b811461107157600080fd5b50565b6000815190506110838161105d565b92915050565b60006020828403121561109f5761109e610e50565b5b60006110ad84828501611074565b91505092915050565b7f4e487b7100000000000000000000000000000000000000000000000000000000600052601160045260246000fd5b60006110f082610d4e565b91506110fb83610d4e565b925082820261110981610d4e565b915082820484148315176111205761111f6110b6565b5b5092915050565b600061113282610d4e565b915061113d83610d4e565b9250828201905080821115611155576111546110b6565b5b92915050565b60006040820190506111706000830185610e26565b61117d6020830184610d58565b9392505050565b60006040820190506111996000830185610d58565b6111a66020830184610d58565b939250505056fea2646970667358221220ece991fab8111ddf4d063a5cdbffd66ea8db765da50572218f664a5e6e58a8ec64736f6c63430008140033",
  "linkReferences": {},
  "deployedLinkReferences": {}
}